{
  "contractName": "ERC20Token",
  "abi": [
    {
      "anonymous": false,
      "inputs": [
        {
          "indexed": true,
          "internalType": "address",
          "name": "from",
          "type": "address"
        },
        {
          "indexed": true,
          "internalType": "address",
          "name": "to",
          "type": "address"
        },
        {
          "indexed": false,
          "internalType": "uint256",
          "name": "value",
          "type": "uint256"
        }
      ],
      "name": "Transfer",
      "type": "event"
    },
    {
      "inputs": [
        {
          "internalType": "address",
          "name": "",
          "type": "address"
        }
      ],
      "name": "balances",
      "outputs": [
        {
          "internalType": "uint256",
          "name": "",
          "type": "uint256"
        }
      ],
      "stateMutability": "view",
      "type": "function"
    },
    {
      "inputs": [],
      "name": "decimals",
      "outputs": [
        {
          "internalType": "uint256",
          "name": "",
          "type": "uint256"
        }
      ],
      "stateMutability": "view",
      "type": "function"
    },
    {
      "inputs": [],
      "name": "totalSupply",
      "outputs": [
        {
          "internalType": "uint256",
          "name": "",
          "type": "uint256"
        }
      ],
      "stateMutability": "view",
      "type": "function"
    },
    {
      "inputs": [
        {
          "internalType": "address",
          "name": "tokenOwner",
          "type": "address"
        }
      ],
      "name": "balanceOf",
      "outputs": [
        {
          "internalType": "uint256",
          "name": "",
          "type": "uint256"
        }
      ],
      "stateMutability": "view",
      "type": "function"
    },
    {
      "inputs": [
        {
          "internalType": "address",
          "name": "sender",
          "type": "address"
        },
        {
          "internalType": "address",
          "name": "recipient",
          "type": "address"
        },
        {
          "internalType": "uint256",
          "name": "amount",
          "type": "uint256"
        }
      ],
      "name": "transferFrom",
      "outputs": [
        {
          "internalType": "bool",
          "name": "",
          "type": "bool"
        }
      ],
      "stateMutability": "nonpayable",
      "type": "function"
    }
  ],
  "bytecode": "0x6080604052678ac7230489e8000060015534801561001c57600080fd5b506105898061002c6000396000f3fe608060405234801561001057600080fd5b50600436106100575760003560e01c806318160ddd1461005c57806323b872dd1461007a57806327e235e3146100aa578063313ce567146100da57806370a08231146100f8575b600080fd5b610064610128565b604051610071919061033a565b60405180910390f35b610094600480360381019061008f91906103e4565b610132565b6040516100a19190610452565b60405180910390f35b6100c460048036038101906100bf919061046d565b6102bc565b6040516100d1919061033a565b60405180910390f35b6100e26102d4565b6040516100ef919061033a565b60405180910390f35b610112600480360381019061010d919061046d565b6102d9565b60405161011f919061033a565b60405180910390f35b6000600154905090565b6000816000808673ffffffffffffffffffffffffffffffffffffffff1673ffffffffffffffffffffffffffffffffffffffff1681526020019081526020016000205461017e91906104c9565b6000808673ffffffffffffffffffffffffffffffffffffffff1673ffffffffffffffffffffffffffffffffffffffff16815260200190815260200160002081905550816000808573ffffffffffffffffffffffffffffffffffffffff1673ffffffffffffffffffffffffffffffffffffffff1681526020019081526020016000205461020a91906104fd565b6000808573ffffffffffffffffffffffffffffffffffffffff1673ffffffffffffffffffffffffffffffffffffffff168152602001908152602001600020819055508273ffffffffffffffffffffffffffffffffffffffff163373ffffffffffffffffffffffffffffffffffffffff167fddf252ad1be2c89b69c2b068fc378daa952ba7f163c4a11628f55a4df523b3ef846040516102a9919061033a565b60405180910390a3600190509392505050565b60006020528060005260406000206000915090505481565b601281565b60008060008373ffffffffffffffffffffffffffffffffffffffff1673ffffffffffffffffffffffffffffffffffffffff168152602001908152602001600020549050919050565b6000819050919050565b61033481610321565b82525050565b600060208201905061034f600083018461032b565b92915050565b600080fd5b600073ffffffffffffffffffffffffffffffffffffffff82169050919050565b60006103858261035a565b9050919050565b6103958161037a565b81146103a057600080fd5b50565b6000813590506103b28161038c565b92915050565b6103c181610321565b81146103cc57600080fd5b50565b6000813590506103de816103b8565b92915050565b6000806000606084860312156103fd576103fc610355565b5b600061040b868287016103a3565b935050602061041c868287016103a3565b925050604061042d868287016103cf565b9150509250925092565b60008115159050919050565b61044c81610437565b82525050565b60006020820190506104676000830184610443565b92915050565b60006020828403121561048357610482610355565b5b6000610491848285016103a3565b91505092915050565b7f4e487b7100000000000000000000000000000000000000000000000000000000600052601160045260246000fd5b60006104d482610321565b91506104df83610321565b9250828210156104f2576104f161049a565b5b828203905092915050565b600061050882610321565b915061051383610321565b9250827fffffffffffffffffffffffffffffffffffffffffffffffffffffffffffffffff038211156105485761054761049a565b5b82820190509291505056fea2646970667358221220a4c545b755d3e994dc36332016b98f3595adbb6821a113a4517abe34362f352864736f6c634300080d0033",
  "immutableReferences": {},
  "source": "//SPDX-License-Identifier: UNLICENSED\npragma solidity ^0.8.0;\n\nlibrary SafeMath {\n  function mul(uint256 a, uint256 b) internal pure returns (uint256) {\n    if (a == 0) {\n      return 0;\n    }\n    uint256 c = a * b;\n    assert(c / a == b);\n    return c;\n  }\n\n  function div(uint256 a, uint256 b) internal pure returns (uint256) {\n    uint256 c = a / b;\n    return c;\n  }\n\n  function sub(uint256 a, uint256 b) internal pure returns (uint256) {\n    assert(b <= a);\n    return a - b;\n  }\n\n  function add(uint256 a, uint256 b) internal pure returns (uint256) {\n    uint256 c = a + b;\n    assert(c >= a);\n    return c;\n  }\n}\n\ninterface IERC20 {\n    function totalSupply() external view returns (uint256);\n    function balanceOf(address account) external view returns(uint256);\n    //function transfer(address recipient,uint256 amount) external returns (bool);\n    function transferFrom(address sender,address recipient,uint256 amount) external returns (bool);\n    //function allowance(address owner,address spender) external view returns (uint256);\n    //function approve(address spender,uint256 amount) external returns (bool);\n\n    event Transfer(\n        address indexed from,\n        address indexed to,\n        uint256 value\n    );\n}\n\ncontract ERC20Token is IERC20 {\n    uint public constant decimals = 18;\n\n    mapping(address => uint256) public balances;\n    uint256 totalSupply_ = 10 ether;\n\n    function totalSupply() public override view returns (uint256){\n        return totalSupply_;\n    }\n\n    function balanceOf(address tokenOwner) public override view returns (uint256){\n        return balances[tokenOwner];\n    }\n\n    function transferFrom(address sender,address recipient,uint256 amount) public override returns (bool){\n        balances[sender]=balances[sender]-(amount);\n        balances[recipient]=balances[recipient]+amount;\n        emit Transfer(msg.sender,recipient,amount);\n        return true;\n    }\n\n    function mint(uint256 tokens,address _owner)internal returns (bool){\n      totalSupply_=totalSupply_+(tokens);\n      balances[_owner]=balances[_owner]+(tokens);\n      emit Transfer(address(0),_owner,tokens);\n      return true;\n    }\n\n\n}",
  "sourcePath": "C:\\Users\\Kuswanth Sai\\Downloads\\TollChain-main\\TollChain-main\\contracts\\ERC20.sol",
  "compiler": {
    "name": "solc",
    "version": "0.8.13+commit.abaa5c0e.Emscripten.clang"
  },
  "schemaVersion": "3.4.11",
  "updatedAt": "2023-01-30T14:21:50.239Z",
  "devdoc": {
    "kind": "dev",
    "methods": {},
    "version": 1
  },
  "userdoc": {
    "kind": "user",
    "methods": {},
    "version": 1
  }
}